:100000000C942A000C9447000C9447000C94470071
:100010000C9447000C9447000C9447000C94470044
:100020000C9447000C9447000C9447000C94470034
:100030000C9447000C9447000C9447000C94470024
:100040000C9447000C9447000C9447000C94470014
:100050000C94470011241FBECFE5D8E0DEBFCDBF12
:1000600010E0A0E6B0E0E6E5FAE002C005900D92EF
:10007000AE38B107D9F720E0AEE8B0E001C01D927C
:10008000A539B207E1F70E947B010C9429050C9475
:10009000000080FF02C0C29A01C0C29881FF02C066
:1000A000C39A01C0C39882FF02C0C49A01C0C49819
:1000B00083FF02C0C59A0895C5980895CF93C82FAD
:1000C000C19A82958F700E944900C198C19A8C2F65
:1000D0000E944900C19885E88A95F1F70000CF9108
:1000E0000895C0980C945E00C09A0C945E00CF9363
:1000F000DF93EC018991882319F00E947400FACFF4
:10010000DF91CF91089590E4699F800D112480685C
:100110000C94710081E00E9471008FE99FE00197CB
:10012000F1F700C00000089582E00E9471008FE99D
:100130009FE00197F1F700C000000895CF93BA9AAD
:10014000BB9ABC9ABD9AB99AB89A8FE295E7019783
:10015000F1F700C00000C098C198C3E0C19A83E0E5
:100160000E944900C1988FE097E20197F1F700C023
:100170000000C15099F7C19A82E00E944900C198DD
:100180008FEC97E00197F1F700C0000088E20E9431
:10019000710088E00E94710081E00E9471008FE987
:1001A0009FE00197F1F700C0000086E00E94710017
:1001B0008CE0CF910C947100811102C081E00BC0E2
:1001C000813011F482E007C0823011F484E003C072
:1001D000833011F488E082BB869906C0859906C0F9
:1001E000849B06C082E0089580E0089581E0089530
:1001F0008FEF0895CF93DF93D0E0CFEF8D2F0E9444
:10020000DC008F3F31F0C1E0C80F8D2F880F8D0FBC
:10021000C80FDF5FD43091F7CB3031F0CC3031F004
:10022000989906C08CE005C080E003C08BE001C057
:100230008C2FDF91CF91089596EF980F9330A8F00F
:1002400040919100509192009AE0949F9001959F67
:10025000300D1124280F311D30939200209391000E
:1002600080918E008F5F80938E000895EF92FF92B1
:100270000F931F93CF93DF93CDB7DEB764970FB67D
:10028000F894DEBF0FBECDBF7C0180E00E948300EA
:1002900080918E008E010F5F1F4F8530A0F4F70113
:1002A00081818F9380818F9380E690E09F938F93DD
:1002B0001F930F930E9458020F900F900F900F9072
:1002C0000F900F9008C06BE670E0C8010E945102C9
:1002D000F70111821082C8010E94770064960FB660
:1002E000F894DEBF0FBECDBFDF91CF911F910F916C
:1002F000FF90EF900895CF93DF93CDB7DEB764976B
:100300000FB6F894DEBF0FBECDBF11BAA89A0E94F7
:100310009E000E949400A12CB12C8E010F5F1F4FF4
:1003200082E8E82E80E0F82E99E7C92E90E0D92ED9
:100330000E948A000E94FA008F3F09F453C00E9475
:10034000FA008A3089F48091910090919200909304
:10035000940080939300109292001092910010925A
:100360008E00BB24B39413C00E94FA008B3079F442
:1003700080919100909192009093940080939300CB
:10038000109292001092910010928E00B12C0E9457
:10039000FA008C3069F4BB2059F080919300909161
:1003A00094002091910030919200820F931F10C011
:1003B0000E94FA008C3091F4B11010C0809193002B
:1003C000909194002091910030919200821B930BA8
:1003D0009093900080938F00AA24A3940E94FA0027
:1003E0000E941C0161E0AA2009F448C080E00E943C
:1003F000830080918F0090919000803127E29207D6
:10040000B0F4BB2029F09F938F93DF92CF9204C06A
:100410009F938F93FF92EF921F930F930E94580226
:100420000F900F900F900F900F900F9005C06BE6FC
:1004300070E0C8010E945102C8010E9477008FEF4E
:1004400090E722E0815090402040E1F700C000009A
:100450000E94FA008C30D9F40E948A001092940015
:1004600010929300109292001092910010929000BE
:1004700010928F0010928E00A12C09C083E990E0A9
:100480000E94360160E081E990E00E9436018FEF22
:1004900091EE24E0815090402040E1F700C0000040
:1004A00047CFFB01DC0101900D920020E1F7089598
:1004B000AEE0B0E0EEE5F2E00C9400050D891E8997
:1004C00086E08C831A8309838FEF9FE79E838D8359
:1004D000AE01475E5F4F6F89788DCE0101960E9415
:1004E0007A02EF81F885E00FF11F10822E96E4E08A
:1004F0000C941C05ACE0B0E0E0E8F2E00C94F204EF
:100500007C016B018A01FC0117821682838181FFC5
:10051000BDC1CE0101964C01F7019381F60193FD17
:10052000859193FF81916F01882309F4ABC18532D6
:1005300039F493FD859193FF81916F01853229F400
:10054000B70190E00E946204E7CF512C312C20E0EB
:100550002032A0F48B3269F030F4803259F08332CB
:1005600069F420612CC08D3239F0803339F4216078
:1005700026C02260246023C0286021C027FD27C038
:1005800030ED380F3A3078F426FF06C0FAE05F9E6F
:10059000300D1124532E13C08AE0389E300D1124E3
:1005A000332E20620CC08E3221F426FD6BC12064F4
:1005B00006C08C3611F4206802C0883641F4F6017A
:1005C00093FD859193FF81916F018111C1CF982F88
:1005D0009F7D9554933028F40C5F1F4FFFE3F98300
:1005E0000DC0833631F0833771F0833509F05BC07D
:1005F00022C0F801808189830E5F1F4F44244394F9
:10060000512C540115C03801F2E06F0E711CF80135
:10061000A080B18026FF03C0652D70E002C06FEF9F
:100620007FEFC5012C870E9457042C0183012C8584
:100630002F77222E17C03801F2E06F0E711CF801DF
:10064000A080B18026FF03C0652D70E002C06FEF6F
:100650007FEFC5012C870E944C042C012C8520685B
:10066000222E830123FC1BC0832D90E048165906DF
:10067000B0F4B70180E290E00E9462043A94F4CFB3
:10068000F50127FC859127FE81915F01B70190E07C
:100690000E94620431103A94F1E04F1A510841145B
:1006A000510471F7E5C0843611F0893639F5F80147
:1006B00027FF07C060817181828193810C5F1F4F8A
:1006C00008C060817181882777FD8095982F0E5F23
:1006D0001F4F2F76B22E97FF09C090958095709589
:1006E00061957F4F8F4F9F4F2068B22E2AE030E0F8
:1006F000A4010E949404A82EA81844C0853729F4A8
:100700002F7EB22E2AE030E025C0F22FF97FBF2ED7
:100710008F36C1F018F4883579F0B4C0803719F0FD
:10072000883721F0AFC02F2F2061B22EB4FE0DC04C
:100730008B2D8460B82E09C024FF0AC09F2F9660BD
:10074000B92E06C028E030E005C020E130E002C04C
:1007500020E132E0F801B7FE07C06081718182813B
:1007600093810C5F1F4F06C06081718180E090E033
:100770000E5F1F4FA4010E949404A82EA818FB2D01
:10078000FF77BF2EB6FE0BC02B2D2E7FA51450F485
:10079000B4FE0AC0B2FC08C02B2D2E7E05C07A2CF8
:1007A0002B2D03C07A2C01C0752C24FF0DC0FE0137
:1007B000EA0DF11D8081803311F4297E09C022FFEA
:1007C00006C07394739404C0822F867809F07394E2
:1007D00023FD13C020FF06C05A2C731418F4530CC9
:1007E0005718732C731468F4B70180E290E02C87DB
:1007F0000E94620473942C85F5CF731410F437189B
:1008000001C0312C24FF12C0B70180E390E02C8797
:100810000E9462042C8522FF17C021FF03C088E5D7
:1008200090E002C088E790E0B7010CC0822F867884
:1008300059F021FD02C080E201C08BE227FD8DE26C
:10084000B70190E00E946204A51438F4B70180E378
:1008500090E00E9462045A94F7CFAA94F401EA0D42
:10086000F11D8081B70190E00E946204A110F5CFD4
:10087000332009F451CEB70180E290E00E94620477
:100880003A94F6CFF7018681978102C08FEF9FEFF0
:100890002C96E2E10C940E05FC010590615070402D
:1008A0000110D8F7809590958E0F9F1F0895FC0139
:1008B0006150704001900110D8F7809590958E0F8F
:1008C0009F1F08950F931F93CF93DF93182F092F26
:1008D000EB018B8181FD03C08FEF9FEF20C082FF72
:1008E00010C04E815F812C813D81421753077CF4FB
:1008F000E881F9819F012F5F3F4F3983288310835F
:1009000006C0E885F985812F0995892B29F72E8165
:100910003F812F5F3F4F3F832E83812F902FDF91A9
:10092000CF911F910F910895FA01AA27283051F114
:10093000203181F1E8946F936E7F6E5F7F4F8F4F10
:100940009F4FAF4FB1E03ED0B4E03CD0670F781F6F
:10095000891F9A1FA11D680F791F8A1F911DA11D54
:100960006A0F711D811D911DA11D20D009F468948D
:100970003F912AE0269F11243019305D3193DEF635
:10098000CF010895462F4770405D4193B3E00FD0EB
:10099000C9F7F6CF462F4F70405D4A3318F0495DD6
:1009A00031FD4052419302D0A9F7EACFB4E0A695B9
:1009B0009795879577956795BA95C9F700976105DB
:1009C000710508959B01AC010A2E06945795479531
:1009D00037952795BA95C9F7620F731F841F951F26
:1009E000A01D08952F923F924F925F926F927F9237
:1009F0008F929F92AF92BF92CF92DF92EF92FF922F
:100A00000F931F93CF93DF93CDB7DEB7CA1BDB0BDA
:100A10000FB6F894DEBF0FBECDBF09942A8839887F
:100A200048885F846E847D848C849B84AA84B98486
:100A3000C884DF80EE80FD800C811B81AA81B98192
:100A4000CE0FD11D0FB6F894DEBF0FBECDBFED01A6
:060A50000895F894FFCFA9
:100A56006C69637A62613A20256400706F7A61205E
:100A66007A616B726573656D0073756D613A2025E9
:0E0A76006400726F7A6E6963613A2025640035
:00000001FF
